:100178001201E012009A8F13E5136401702305152C
:10018800531503E5157002F512E515B40103751250
:1001980014E515B40203751232E515B4030375129C
:0D01A80064E515FD7C007F0112010B80C68F
:03000B000201B53A
:1001B500C0E0C0F0C0D0758AA4758CFF0514E514A5
:1001C50075F0648485F014E514C395125004D2903B
:0B01D5008002C290D0D0D0F0D0E03209
:1001F700EF4E600F7D027CC7DCFEDDFCEF1F70F069
:030207001E80ED69
:01020A0022D1
:10009A00E4F516F51720B1167F14FE1201F730B1F8
:1000AA00FD7F147E001201F775160075170120B046
:1000BA00177F147E001201F730B0FD7F147E001204
:1000CA0001F775160075170220B2177F147E001209
:1000DA0001F730B2FD7F147E001201F77516007524
:1000EA00170320B3177F147E001201F730B3FD7F88
:1000FA00147E001201F7751600751704AE16AF17B5
:01010A0022D2
:1001E0005389F0438901758AA4758CFFC28DD28C26
:0701F000D2A9D2AFC2B9226F
:0C020B000A083F065B4F666D7D077F6FA1
:10010B00EF14B40800505490012075F003A4C5837C
:10011B0025F0C5837302013802013C020140020144
:10012B0044020148020150020158020160D2A4802E
:10013B000ED2A48012D2A48016D2A4801AC2A4D24A
:10014B00A3D2A28016C2A4D2A3C2A2800EC2A4C202
:10015B00A3D2A28006C2A4C2A3C2A274082DF8E641
:0D016B00F5807F017E001201F7E4F580228F
:0300000002000EED
:0C000E00787FE4F6D8FD758117020055DC
:10001A00020178E493A3F8E493A34003F68001F283
:10002A0008DFF48029E493A3F85407240CC8C333E7
:10003A00C4540F4420C8834004F456800146F6DFB6
:10004A00E4800B010204081020408090020BE47E39
:10005A00019360BCA3FF543F30E509541FFEE493AB
:10006A00A360010ECF54C025E060A840B8E493A372
:10007A00FAE493A3F8E493A3C8C582C8CAC583CA9D
:10008A00F0A3C8C582C8CAC583CADFE9DEE780BE55
:0102170000E6
:00000001FF
