:1000D80075A0FE12010B12000E8E0C8F0DE50D455A
:1000E8000C60F3E50D6401450C70EB050BE50B7036
:1000F80002050AC39402E50A940040DAE4F50AF519
:030108000B80D396
:03000B0002007F71
:0B007F00C0E0C0D075D000C000C0077A
:10008A00758A66758CFC0509E50970020508C39432
:10009A00E8E5089403402E750800750900E50B454C
:1000AA000A700DAFA07801EF08800123D8FDF5A0F2
:1000BA00E50B6401450A700DAFA07801EF088001D5
:0500CA0003D8FDF5A0C4
:0900CF00D007D000D0D0D0E032FF
:10010B005389F0438901758A66758CFCC28DD28C3C
:07011B00D2A9D2AFC2B92244
:10000E00E4F50EF50F20B1167F14FE12012230B169
:10001E00FD7F147E00120122750E00750F0120B0B7
:10002E00177F147E0012012230B0FD7F147E001265
:10003E000122750E00750F0220B2177F147E00127A
:10004E00012230B2FD7F147E00120122750E007562
:10005E000F0320B3177F147E0012012230B3FD7FF1
:10006E00147E00120122750E00750F04AE0EAF0F36
:01007E00225F
:10012200EF4E600F7D027CC7DCFEDDFCEF1F70F03E
:030132001E80ED3F
:0101350022A7
:03000000020136C4
:0C013600787FE4F6D8FD75810F0200D838
:00000001FF
