:10046C0050617373776F72643A004F4B20004552A2
:02047C0052002C
:10018C00E4F509F50A1204447BFF7A04796C7D01CD
:10019C007F011203D01200038F08E5086046D39448
:1001AC000A5033C3E50A9404E50994005028AE0BB9
:1001BC00AF0C7C007D0A12028B8E0B8F0CE5087540
:1001CC00F00A84E5F0250CF50CE4350BF50B050A6B
:1001DC00E50A70020509751104AB0CAA0B7D017FB1
:1001EC0002120411E508640B7036E50CB4290DE518
:1001FC000BB409087BFF7A04797680067BFF7A04BE
:10020C00797A7D0E7F011203D0E4F50BF50CF5091C
:10021C00F50A751104AB0CAA0B7D017F02120411B7
:10022C00E508640C60030201A1F50BF50CF509F56A
:10023C000A1204447BFF7A04796C7D017F0112035E
:10024C00D0751104AB0CAA0B7D017F0212041102B4
:02025C0001A1FE
:06047E00C2A58F80D2A789
:080484007F027EEFDEFEDFFCCB
:01048C00224D
:0A049900C2A612047EC2A70204846A
:1003F300CFCDCFCECCCE12029D7C007D0A12029DC2
:04040300ED2430FFB5
:0A040700D2A612047EC2A7020484EC
:10042E00AE07BE0104ED148006BE0209ED243F4462
:06043E0080FF1204992268
:100444007F381204997F0C1204997F061204997F55
:040454000102049904
:0A04A300AC0312042EAF040204079C
:0603D0008B0D8A0E890F5F
:1003D60012042EE4FDAB0DAA0EA90F8D82758300C3
:0C03E60012025EFF60061204070D80E9A1
:0103F20022E8
:0C039D007F0AEA24FFFDE434FFFC7E0030
:0803A9008E128F138C148D15C8
:1003B1007F017E00E4FBEBC39515E5146480F874BE
:0E03C1008098500AAC12AD1312028B0B80E82C
:0103CF00220B
:040411008A0F8B10B3
:1004150012042EAA11EAD39400400D12039DAC0FCD
:08042500AD101203F31A80ED83
:01042D0022AC
:1002F20012042EC3EA64809480400B7F2B12040701
:100302008A1B8B1C800E7F2D120407C3E49BF51CF5
:10031200E49AF51BAA1AEAD39400400D12039DAC8D
:090322001BAD1C1203F31A80ED5F
:01032B0022AF
:04032C008A1F8B2079
:1003300012042EAA21EAD3940040297F1012039FB1
:10034000AC1FAD20CFCDCFCECCCE12029DEF540F3F
:10035000FEC3940AEE5004243080022437FF1204B6
:04036000071A80D127
:010364002276
:040365008A248B2536
:1003690012042EAA26EAD394004028EA24FFFDE4C9
:1003790034FFFC7F027E001203A9AC24AD25CFCD4A
:10038900CFCECCCE12029DEF54012430FF120407C8
:030399001A80D2F5
:01039C00223E
:10000300E4F50D7590FFC2932097137F14FE12043D
:10001300583097FD7F147E00120458750D01209609
:10002300147F147E001204583096FD7F147E001254
:100033000458750D052095147F147E001204583062
:1000430095FD7F147E00120458750D092094147FCA
:10005300147E001204583094FD7F147E001204585D
:10006300750D0D7590FFC2922097147F147E0012B8
:1000730004583097FD7F147E00120458750D02203A
:1000830096147F147E001204583096FD7F147E0070
:10009300120458750D062095147F147E001204581F
:1000A3003095FD7F147E00120458750D0A209414B8
:1000B3007F147E001204583094FD7F147E001204D6
:1000C30058750D0E7590FFC2912097147F147E0012
:1000D3001204583097FD7F147E00120458750D03E7
:1000E3002096147F147E001204583096FD7F147EF0
:1000F30000120458750D072095147F147E00120416
:10010300583095FD7F147E00120458750D0B209412
:10011300147F147E001204583094FD7F147E001265
:100123000458750D0F7590FFC2902097147F147EAD
:10013300001204583097FD7F147E00120458750D89
:10014300042096147F147E001204583096FD7F1409
:100153007E00120458750D082095147F147E00123A
:1001630004583095FD7F147E00120458750D0C2041
:1001730094147F147E001204583094FD7F147E0083
:08018300120458750D10AF0DB8
:01018B002251
:10045800EF4E600F7D027CC7DCFEDDFCEF1F70F005
:030468001E80ED06
:01046B00226E
:0300000002048D6A
:0C048D00787FE4F6D8FD75812602018C12
:10025E00BB010CE58229F582E5833AF583E0225055
:10026E0006E92582F8E622BBFE06E92582F8E2229F
:0D027E00E58229F582E5833AF583E49322B9
:10028B00EF8DF0A4A8F0CF8CF0A428CE8DF0A42E87
:02029B00FE2241
:10029D00BC000BBE0029EF8DF084FFADF022E4CC45
:1002AD00F875F008EF2FFFEE33FEEC33FCEE9DEC0E
:1002BD00984005FCEE9DFE0FD5F0E9E4CEFD22ED54
:1002CD00F8F5F0EE8420D21CFEADF075F008EF2F9E
:1002DD00FFED33FD4007985006D5F0F222C398FD8F
:0502ED000FD5F0EA222C
:00000001FF
