:1001980012020B0509E509700205087FE87E0312C3
:1001A800021F750E03AB09AA087D017F011201D851
:0201B80080E1E4
:06023300C2A58F80D2A7D6
:080239007F027EEFDEFEDFFC18
:01024100229A
:0A024E00C2A6120233C2A702023951
:1001BA00CFCDCFCECCCE1200427C007D0A120042B7
:0401CA00ED2430FFF1
:0A01CE00D2A6120233C2A7020239C2
:1001F500AE07BE0104ED148006BE0209ED243F449E
:0602050080FF12024E22F0
:10020B007F3812024E7F0C12024E7F0612024E7F77
:04021B000102024E8C
:0A025800AC031201F5AF040201CE61
:060175008B248A25892677
:10017B001201F5E4FDAB24AA25A9268D8275830017
:0C018B00120003FF60061201CE0D80E997
:010197002245
:0C0142007F0AEA24FFFDE434FFFC7E008D
:08014E008E0F8F108C118D1231
:100156007F017E00E4FBEBC39512E5116480F87421
:0E0166008098500AAC0FAD101200300B80E8EC
:010174002268
:0401D8008A0C8B0DF5
:1001DC001201F5AA0EEAD39400400D120142AC0CA8
:0801EC00AD0D1201BA1A80EDFD
:0101F40022E8
:100097001201F5C3EA64809480400B7F2B1201CED6
:1000A7008A188B19800E7F2D1201CEC3E49BF51998
:1000B700E49AF518AA17EAD39400400D120142AC4E
:0900C70018AD191201BA1A80EDFE
:0100D000220D
:0400D1008A1C8B1DDD
:1000D5001201F5AA1EEAD3940040297F10120144AB
:1000E500AC1CAD1DCFCDCFCECCCE120042EF540F00
:1000F500FEC3940AEE5004243080022437FF120117
:04010500CE1A80D1BD
:0101090022D3
:04010A008A218B2299
:10010E001201F5AA23EAD394004028EA24FFFDE465
:10011E0034FFFC7F027E0012014EAC21AD22CFCD0A
:10012E00CFCECCCE120042EF54012430FF1201CEBE
:03013E001A80D252
:01014100229B
:10021F00EF4E600F7D027CC7DCFEDDFCEF1F70F040
:03022F001E80ED41
:0102320022A9
:03000000020242B7
:0C024200787FE4F6D8FD75812602019853
:10000300BB010CE58229F582E5833AF583E02250B2
:1000130006E92582F8E622BBFE06E92582F8E222FC
:0D002300E58229F582E5833AF583E4932216
:10003000EF8DF0A4A8F0CF8CF0A428CE8DF0A42EE4
:02004000FE229E
:10004200BC000BBE0029EF8DF084FFADF022E4CCA2
:10005200F875F008EF2FFFEE33FEEC33FCEE9DEC6B
:10006200984005FCEE9DFE0FD5F0E9E4CEFD22EDB1
:10007200F8F5F0EE8420D21CFEADF075F008EF2FFB
:10008200FFED33FD4007985006D5F0F222C398FDEC
:050092000FD5F0EA2289
:00000001FF
