:1009310020200020202D20202D20200020203A20C2
:05094100203A20200017
:10059F00120486E519FB3395E0FA750C027D017F95
:1005AF00011208E7E51AFB3395E0FA750C027D049A
:1005BF007F011208E7E51BFB3395E0FA750C027D0E
:1005CF00077F011208E7E51CFB3395E0FA750C0273
:1005DF007D017F021208E7E51DFB3395E0FA750CEC
:1005EF00027D047F021208E7E51EFB3395E0FA75E2
:1005FF000C027D077F021208E7E51FFB3395E0FA37
:0A060F00750C017D0B7F010208E766
:10000E00E515B4020B0518E51875F0068485F01891
:10001E00E515640360030200E874192518F806D389
:10002E00E519648094E34003E4F519D3E51A64807E
:10003E00948C4003751A01E51A64016023E51A6475
:10004E0003601DE51A64056017E51A64076011E583
:10005E001A6408600BE51A640A6005E51AB40C0B05
:10006E00D3E51B6480949F404D8048E51A6404607C
:10007E0011E51A6406600BE51A64096005E51AB409
:10008E000B0BD3E51B6480949E402B8026E51AB49F
:10009E000224E51975F0041203D0AFF0EF700BD304
:1000AE00E51B6480949D400E8009D3E51B6480940B
:1000BE009C4003751B01D3E51C648094974003E4B8
:1000CE00F51CD3E51D648094BB4003E4F51DD3E518
:1000DE001E648094BB4003E4F51EE51564046003C2
:1000EE000201DA74192518F816C3E5196480948193
:1000FE005003751963C3E51A648094815003751A11
:10010E000CE51A64016023E51A6403601DE51A64A8
:10011E00056017E51A64076011E51A6408600BE5BF
:10012E001A640A6005E51AB40C17C3E51B648094C3
:10013E00815003751B1FD3E51B6480949F4069801B
:10014E0064E51A64046011E51A6406600BE51A642E
:10015E00096005E51AB40B0EC3E51B64809481504B
:10016E0047751B1E8042E51A6402703CE51975F056
:10017E00041203D0AFF0EF7017C3E51B64809481B7
:10018E005003751B1DD3E51B6480949D401A80158A
:10019E00C3E51B648094815003751B1CD3E51B645F
:1001AE0080949C4003751B01C3E51C6480948050B1
:1001BE0003751C17C3E51D648094805003751D3BA9
:1001CE00C3E51E648094805003751E3BE5187014C1
:1001DE00E514B4010F7BFF7A0979317D017F01129D
:1001EE0008A68011E519FB3395E0FA750C027D0126
:1001FE007F011208E7E518B40114E514B4010F7B72
:10020E00FF7A0979317D047F011208A68011E51A63
:10021E00FB3395E0FA750C027D047F011208E7E5C9
:10022E0018B40214E514B4010F7BFF7A0979317DFD
:10023E00077F011208A68011E51BFB3395E0FA75C6
:10024E000C027D077F011208E7E518B40314E514CC
:10025E00B4010F7BFF7A0979317D017F021208A666
:10026E008011E51CFB3395E0FA750C027D017F02CF
:10027E001208E7E518B40414E514B4010F7BFF7AF5
:10028E000979317D047F021208A68011E51DFB332A
:10029E0095E0FA750C027D047F021208E7E518B4AA
:1002AE000514E514B4010F7BFF7A0979317D077FC0
:1002BE00021208A68011E51EFB3395E0FA750C02BA
:1002CE007D077F021208E7E51FFB3395E0FA750CF8
:0802DE00017D0B7F010208E71E
:1006EB001209461200031209047BFF7A0979347D43
:1006FB00017F011208A67BFF7A09793D7D017F02FC
:10070B001208A61202E61206198F15E515B401148C
:10071B00E5137005751301800BE513B40106E4F5C1
:10072B00131202E6E5131460080470DA12059F80B9
:06073B00D512000E80D073
:03000B000207C920
:0907C900C0E0C0D075D000C007EB
:1007D200758A18758CFC0512E51270020511D39406
:1007E200E8E51194035012751100751200E51470BA
:0907F200047F0180027F008F14D6
:0707FB00D007D0D0D0E0329E
:06096E00C2A58F80D2A794
:080974007F027EEFDEFEDFFCD6
:01097C002258
:0A097D00C2A612096EC2A702097497
:1008C900CFCDCFCECCCE1204317C007D0A120431BB
:0408D900ED2430FFDB
:0A08DD00D2A612096EC2A702097428
:10091B00AE07BE0104ED148006BE0209ED243F4470
:06092B0080FF12097D228D
:100946007F3812097D7F0C12097D7F0612097D7F93
:040956000102097D14
:0A098700AC0312091BAF040208DDE7
:0608A6008B088A09890A93
:1008AC0012091BE4FDAB08AA09A90A8D8275830005
:0C08BC001203F2FF60061208DD0D80E957
:0108C800220D
:0C0873007F0AEA24FFFDE434FFFC7E0055
:08087F008E0D8F0E8C0F8D1001
:100887007F017E00E4FBEBC39510E50F6480F874ED
:0E0897008098500AAC0DAD0E12041F0B80E8C5
:0108A5002230
:0408E7008A0A8B0BE3
:1008EB0012091BAA0CEAD39400400D120873AC0A30
:0808FB00AD0B1208C91A80EDD3
:0109030022D1
:10078F0012091BC3EA64809480400B7F2B1208DD93
:10079F008A268B27800E7F2D1208DDC3E49BF52759
:1007AF00E49AF526AA25EAD39400400D120873ACFB
:0907BF0026AD271208C91A80EDCD
:0107C800220E
:040802008A2A8B2B88
:1008060012091BAA2CEAD3940040297F10120875FE
:10081600AC2AAD2BCFCDCFCECCCE120431EF540FB8
:10082600FEC3940AEE5004243080022437FF1208D7
:04083600DD1A80D176
:01083A00229B
:04083B008A2F8B3045
:10083F0012091BAA31EAD394004028EA24FFFDE4F1
:10084F0034FFFC7F027E0012087FAC2FAD30CFCD7E
:10085F00CFCECCCE120431EF54012430FF1208DD7D
:03086F001A80D21A
:010872002263
:090991000719180A090A35370399
:05000300C2B5C2B622E7
:06068A0025F0FDEC3EFC32
:10069000AB05AA04A907D2B5E4F52074017E00A831
:1006A00020088005C333CE33CED8F9FFE9FDEF5DD6
:1006B00024FF92B4D2B6C2B60520E520B408DCE42B
:1006C000F52074017E00A820088005C333CE33CE08
:1006D000D8F9FFEE5AFEEF5B4E24FF92B4D2B6C2B9
:0B06E000B60520E520B408DAC2B52200
:02074100AD0702
:10074300E4F9430501D2B5FB74017E00A8030880D8
:1007530005C333CE33CED8F9FFEDF582EF558224AE
:10076300FF92B4C2B6D2B60BBB08DDE4FBD2B6C26D
:10077300B630B40D7401A803088002C333D8FC4219
:0B078300010BBB08E8C2B5C2B4AF0117
:01078E002248
:1002E600E4FDFC7F8E120690E51975F00A8475F020
:1002F60010A4FFAEF0E51975F00A84EF7F8C1206A4
:100306008AE51A75F00A8475F010A4FFAEF0E51AB6
:1003160075F00A847C00EF7F8812068AE51B75F06B
:100326000A8475F010A4FFAEF0E51B75F00A847C14
:1003360000EF25F0FDEC3EFC7F86120690E51C756D
:10034600F00A8475F010A4FFAEF0E51C75F00A847F
:100356007C00EF25F0FDEC3EFC7F84120690E51D47
:1003660075F00A8475F010A4FFAEF0E51D75F00A6D
:10037600847C00EF25F0FDEC3EFC7F82120690E5C2
:100386001E75F00A8475F010A4FFAEF0E51E75F038
:100396000A847C00EF25F0FDEC3EFC7F801206907F
:1003A600E51F75F00A8475F010A4FFAEF0E51F7521
:1003B600F00A847C00EF25F0FDEC3EFC7F8A1206F5
:0A03C600907D807C007F8E0206907F
:100486007F8C120741EFC4540F75F00AA4FEEF5497
:100496000F2EF5197F88120741EFC4540F75F00A25
:1004A600A4FEEF540F2EF51A7F86120741EFC454AF
:1004B6000F75F00AA4FEEF540F2EF51B7F8412076A
:1004C60041EFC4540F75F00AA4FEEF540F2EF51C2D
:1004D6007F82120741EFC4540F75F00AA4FEEF5451
:1004E6000F2EF51D7F80120741EFC4540F75F00AD9
:1004F600A4FEEF540F2EF51E7F8A120741EFC45457
:0C0506000F75F00AA4FEEF540F2EF51F35
:0105120022C6
:10095A00EF4E600F7D027CC7DCFEDDFCEF1F70F0FE
:03096A001E80EDFF
:01096D002267
:10061900E4F508F50920B1167F14FE12095A30B124
:10062900FD7F147E0012095A75080075090120B072
:10063900177F147E0012095A30B0FD7F147E001214
:10064900095A75080075090220B2177F147E001235
:10065900095A30B2FD7F147E0012095A75080075D7
:10066900090320B3177F147E0012095A30B3FD7FA6
:10067900147E0012095A750800750904AE08AF09FD
:01068900224E
:100904005389F0438901758A66758CFCC28DD28C3B
:07091400D2A9D2AFC2B92243
:03000000020513E3
:0C051300787FE4F6D8FD75813102055AAE
:1003D000C2D530F707B2D563F0FF05F030E70CB2B5
:1003E000D5F4048463F0FF05F080018430D502F475
:0203F0000422E5
:1003F200BB010CE58229F582E5833AF583E02250C0
:1004020006E92582F8E622BBFE06E92582F8E22209
:0D041200E58229F582E5833AF583E4932223
:10041F00EF8DF0A4A8F0CF8CF0A428CE8DF0A42EF1
:02042F00FE22AB
:10043100BC000BBE0029EF8DF084FFADF022E4CCAF
:10044100F875F008EF2FFFEE33FEEC33FCEE9DEC78
:10045100984005FCEE9DFE0FD5F0E9E4CEFD22EDBE
:10046100F8F5F0EE8420D21CFEADF075F008EF2F08
:10047100FFED33FD4007985006D5F0F222C398FDF9
:050481000FD5F0EA2296
:10051F000206EBE493A3F8E493A34003F68001F201
:10052F0008DFF48029E493A3F85407240CC8C333DD
:10053F00C4540F4420C8834004F456800146F6DFAC
:10054F00E4800B0102040810204080900991E47EA2
:10055F00019360BCA3FF543F30E509541FFEE493A1
:10056F00A360010ECF54C025E060A840B8E493A368
:10057F00FAE493A3F8E493A3C8C582C8CAC583CA93
:10058F00F0A3C8C582C8CAC583CADFE9DEE780BE4B
:01099A00005C
:00000001FF
