:1005540020202D20202D20200020203A20203A2069
:02056400200075
:1001810012052C1205937BFF7A0579547D017F01BD
:100191001204B87BFF7A05795D7D017F021204B8F4
:1001A100120003120212E511FB7A00750C027D01A7
:1001B1007F011204F9E512FB7A00750C027D047FC0
:1001C100011204F9E513FB7A00750C027D077F012A
:1001D1001204F9E514FB7A00750C027D017F02120D
:1001E10004F9E515FB7A00750C027D047F02120407
:1001F100F9E516FB7A00750C027D077F021204F9FE
:10020100E517FB7A00750C017D0B7F011204F98063
:01021100925A
:06056600C2A58F80D2A7A0
:08056C007F027EEFDEFEDFFCE2
:010574002264
:0A057500C2A6120566C2A702056CBB
:1004DB00CFCDCFCECCCE12012C7C007D0A12012CBD
:0404EB00ED2430FFCD
:0A04EF00D2A6120566C2A702056C32
:10051600AE07BE0104ED148006BE0209ED243F4479
:0605260080FF12057522A2
:10052C007F381205757F0C1205757F061205757FD5
:04053C00010205753E
:0A057F00AC03120516AF040204EFEE
:0604B8008B088A09890A85
:1004BE00120516E4FDAB08AA09A90A8D8275830000
:0C04CE001200EDFF60061204EF0D80E943
:0104DA0022FF
:0C0485007F0AEA24FFFDE434FFFC7E0047
:080491008E0D8F0E8C0F8D10F3
:100499007F017E00E4FBEBC39510E50F6480F874DF
:0E04A9008098500AAC0DAD0E12011A0B80E8BF
:0104B7002222
:0404F9008A0A8B0BD5
:1004FD00120516AA0CEAD39400400D120485AC0A1D
:08050D00AD0B1204DB1A80EDB6
:0105150022C3
:1003DA00120516C3EA64809480400B7F2B1204EF47
:1003EA008A1E8B1F800E7F2D1204EFC3E49BF51F1C
:1003FA00E49AF51EAA1DEAD39400400D120485ACB6
:09040A001EAD1F1204DB1A80ED87
:0104130022C6
:040414008A228B238A
:10041800120516AA24EAD3940040297F10120487F3
:10042800AC22AD23CFCDCFCECCCE12012CEF540FC2
:10043800FEC3940AEE5004243080022437FF1204CD
:04044800EF1A80D156
:01044C00228D
:04044D008A278B2847
:10045100120516AA29EAD394004028EA24FFFDE4F4
:1004610034FFFC7F027E00120491AC27AD28CFCD72
:10047100CFCECCCE12012CEF54012430FF1204EF69
:030481001A80D20C
:010484002255
:090589000711180A090A353703AD
:05059300C2B5C2B62252
:06032B0025F0FDEC3EFC94
:10033100AB05AA04A907D2B5E4F51874017E00A89B
:1003410018088005C333CE33CED8F9FFE9FDEF5D40
:1003510024FF92B4D2B6C2B60518E518B408DCE49D
:10036100F51874017E00A818088005C333CE33CE7A
:10037100D8F9FFEE5AFEEF5B4E24FF92B4D2B6C21B
:0B038100B60518E518B408DAC2B52272
:02038C00AD07BB
:10038E00E4F9430501D2B5FB74017E00A803088091
:10039E0005C333CE33CED8F9FFEDF582EF55822467
:1003AE00FF92B4C2B6D2B60BBB08DDE4FBD2B6C226
:1003BE00B630B40D7401A803088002C333D8FC42D2
:0B03CE00010BBB08E8C2B5C2B4AF01D0
:0103D9002201
:10000300E4FDFC7F8E120331E51175F00A8475F06F
:1000130010A4FFAEF0E51175F00A84EF7F8C120394
:100023002BE51275F00A8475F010A4FFAEF0E5120B
:1000330075F00A847C00EF7F8812032BE51375F0BB
:100043000A8475F010A4FFAEF0E51375F00A847C02
:1000530000EF25F0FDEC3EFC7F86120331E51475BD
:10006300F00A8475F010A4FFAEF0E51475F00A846D
:100073007C00EF25F0FDEC3EFC7F84120331E51597
:1000830075F00A8475F010A4FFAEF0E51575F00A5B
:10009300847C00EF25F0FDEC3EFC7F82120331E50A
:1000A3001675F00A8475F010A4FFAEF0E51675F02E
:1000B3000A847C00EF25F0FDEC3EFC7F80120331C7
:1000C300E51775F00A8475F010A4FFAEF0E5177517
:1000D300F00A847C00EF25F0FDEC3EFC7F8A1203DE
:0A00E300317D807C007F8E02033126
:100212007F8C12038CEFC4540F75F00AA4FEEF54C6
:100222000F2EF5117F8812038CEFC4540F75F00A5C
:10023200A4FEEF540F2EF5127F8612038CEFC454E6
:100242000F75F00AA4FEEF540F2EF5137F841203EC
:100252008CEFC4540F75F00AA4FEEF540F2EF51460
:100262007F8212038CEFC4540F75F00AA4FEEF5480
:100272000F2EF5157F8012038CEFC4540F75F00A10
:10028200A4FEEF540F2EF5167F8A12038CEFC4548E
:0C0292000F75F00AA4FEEF540F2EF517B4
:01029E00223D
:10054000EF4E600F7D027CC7DCFEDDFCEF1F70F01C
:030550001E80ED1D
:010553002285
:0300000002029F5A
:0C029F00787FE4F6D8FD75812B0202E6A2
:1000ED00BB010CE58229F582E5833AF583E02250C8
:1000FD0006E92582F8E622BBFE06E92582F8E22212
:0D010D00E58229F582E5833AF583E493222B
:10011A00EF8DF0A4A8F0CF8CF0A428CE8DF0A42EF9
:02012A00FE22B3
:10012C00BC000BBE0029EF8DF084FFADF022E4CCB7
:10013C00F875F008EF2FFFEE33FEEC33FCEE9DEC80
:10014C00984005FCEE9DFE0FD5F0E9E4CEFD22EDC6
:10015C00F8F5F0EE8420D21CFEADF075F008EF2F10
:10016C00FFED33FD4007985006D5F0F222C398FD01
:05017C000FD5F0EA229E
:1002AB00020181E493A3F8E493A34003F68001F2E7
:1002BB0008DFF48029E493A3F85407240CC8C33354
:1002CB00C4540F4420C8834004F456800146F6DF23
:1002DB00E4800B0102040810204080900589E47E25
:1002EB00019360BCA3FF543F30E509541FFEE49318
:1002FB00A360010ECF54C025E060A840B8E493A3DF
:10030B00FAE493A3F8E493A3C8C582C8CAC583CA09
:10031B00F0A3C8C582C8CAC583CADFE9DEE780BEC1
:010592000068
:00000001FF
