:1000CD002030080000000000000000FF1010FF00AD
:1000DD0000FF8989890000FF01010000FF01010077
:1000ED003C428181423C00007D0000000000000088
:0300FD0000000000
:10008F00E4F539F53A120164E4F538E538253924F9
:10009F0008F8E6FD7C00AF3812012E0538E538C3AD
:1000AF00940840E7053AE53AD3940A40DBE4F53A81
:0E00BF000539E539D3942840CFE4F53980CADD
:10015000EF4E600F7D027CC7DCFEDDFCEF1F70F010
:030160001E80ED11
:010163002279
:02010100AD0748
:10010300E4FB74807E00A803088006CEA2E713CE2A
:1001130013D8F8FFEDF582EF558224FF92B4D2B6DF
:0A012300C2B60BBB08DCD2B5C2B5B2
:01012D0022AF
:10012E00AA07AF05120101AF027480A8070880026A
:10013E00C313D8FCF4F5807F017E00120150758048
:02014E00FF228E
:05016400C2B6C2B52285
:03000000020003F8
:0C000300787FE4F6D8FD75813A02004ACF
:10000F0002008FE493A3F8E493A34003F68001F278
:10001F0008DFF48029E493A3F85407240CC8C333F2
:10002F00C4540F4420C8834004F456800146F6DFC1
:10003F00E4800B01020408102040809000CDE47E84
:10004F00019360BCA3FF543F30E509541FFEE493B6
:10005F00A360010ECF54C025E060A840B8E493A37D
:10006F00FAE493A3F8E493A3C8C582C8CAC583CAA8
:10007F00F0A3C8C582C8CAC583CADFE9DEE780BE60
:0101000000FE
:00000001FF
